:020000020000FC
:02000000C6C177
:0200340036C5CF
:100040002CC53C00240024003C0024002400240093
:100050007C0046004C0070006C0046007C00F1E023
:10006000E0E30FE00193F1E0EAE309E00193F1E05E
:10007000E4E409E00193F1E0EEE40FE00193F1E044
:10008000E8E501E00193F1E0E2E601E00193F1E04F
:10009000E0E3F1E0E1E30FE00193F1E0EBE309E0FD
:1000A0000193F1E0E5E409E00193F1E0EFE40FE012
:1000B0000193F1E0E9E505E00193F1E0E3E609E011
:1000C0000193F1E0E0E3F1E0E2E30FE00193F1E01E
:1000D000ECE301E00193F1E0E6E401E00193F1E0FB
:1000E000E0E50FE00193F1E0EAE501E00193F1E0E2
:1000F000E4E60FE00193F1E0E0E3F1E0E3E30FE099
:100100000193F1E0EDE301E00193F1E0E7E40FE0BA
:100110000193F1E0E1E508E00193F1E0EBE508E0AF
:100120000193F1E0E5E60FE00193F1E0E0E3F1E0B7
:10013000E4E30FE00193F1E0EEE301E00193F1E08D
:10014000E8E40FE00193F1E0E2E508E00193F1E07B
:10015000ECE508E00193F1E0E6E60FE00193F1E061
:10016000E0E3F1E0E5E30FE40193F1E0EFE309EC14
:100170000193F1E0E9E409EC0193F1E0E3E50FE438
:100180000193F1E0EDE509E40193F1E0E7E609E42C
:100190000193F1E0E0E3F1E0E6E302E90193F1E04D
:1001A000E0E402E90193F1E0EAE402E60193F1E020
:1001B000E4E503E60193F1E0EEE503E40193F1E009
:1001C000E8E602E40193F1E0E0E3F1E0E7E300E5D3
:1001D0000193F1E0E1E400E30193F1E0EBE400E1FD
:1001E0000193F1E0E5E500E30193F1E0EFE500E5DF
:1001F0000193F1E0E9E600E90193F1E0E0E3F1E0E9
:10020000E8E30CE30193F1E0E2E404E00193F1E0C0
:10021000ECE404E00193F1E0E6E50CE30193F1E0A6
:10022000E0E604E00193F1E0EAE60CE30193F1E09B
:10023000E0E3F1E0E9E309E00193F1E0E3E409E060
:100240000193F1E0EDE406E00193F1E0E7E506E07B
:100250000193F1E0E1E604E00193F1E0EBE604E074
:100260000193F1E0E0E308950FB70F93F1E0E0E3CD
:100270000FEC0193F1E0EAE301E40193F1E0E4E43F
:100280000DE40193F1E0EEE409EC0193F1E0E8E51F
:1002900009E40193F1E0E2E609E40193F1E0E0E32F
:1002A000F1E0E1E303E00193F1E0EBE302E001932D
:1002B000F1E0E5E402E00193F1E0EFE403E0019313
:1002C000F1E0E9E502E00193F1E0E3E602E0019309
:1002D000F1E0E0E3F1E0E2E30FE00193F1E0ECE3D1
:1002E00001E00193F1E0E6E401E00193F1E0E0E5F3
:1002F0000FE00193F1E0EAE501E00193F1E0E4E6CB
:100300000FE00193F1E0E0E3F1E0E3E30FE00193BC
:10031000F1E0EDE301E00193F1E0E7E40FE00193A8
:10032000F1E0E1E508E00193F1E0EBE508E001939D
:10033000F1E0E5E60FE00193F1E0E0E3F1E0E4E372
:100340000FE00193F1E0EEE301E00193F1E0E8E476
:100350000FE00193F1E0E2E508E00193F1E0ECE564
:1003600008E00193F1E0E6E60FE00193F1E0E0E35D
:10037000F89435D378941FEF2FEF3FEF3A95F1F7CC
:100380002A95D9F71A95C1F70F910FBF00C000E069
:1003900000935404112402E005BD01E000936E00B7
:1003A00006E006BD00E00093800003E000938100BA
:1003B00001E000936F0000E0009384000FEF0093D2
:1003C00085003A9A429A239A249A259AF1E0E0E32A
:1003D00016E400E001931A95E1F7F3E0E5E016E496
:1003E00000E001931A95E1F7F3E0E0E816E400E09D
:1003F00001931A95E1F7F89400C08AD200910402A3
:10040000013041F4913051F0923041F0933031F0AD
:10041000903021F07DD223DEE2D2EFCF78940EE04F
:10042000009376030CE20093770301E300937803D3
:1004300005E400E00093660000E00093670000E53B
:100440000093680002E30093690002E30093000355
:100450000CE30093010305E0009302030FE0009317
:10046000030310910003F3E0E5E0E10FF11D00EF5D
:10047000008310910103F3E0E5E0E10FF11D00EFCF
:10048000008310910203F3E0E5E000EFE10FF11DBE
:10049000008310910303F3E0E5E000EFE10FF11DAD
:1004A000008311D2F8949BD2789400E80093030261
:1004B00000E80093510400C0D0915404D13011F4ED
:1004C0000C94560525D2009104020130F1F41091EC
:1004D00099001030D1F0923079F5429800910402E1
:1004E000013051F520E0A03049F0A13001F04298F0
:1004F00025D0429A11E01093990007C0429892D0FB
:10050000429A11E01093990000C01091000211303E
:1005100029F410E010930002F1E0E0E360D21091C2
:100520000102113031F4F6D0CED1109100001093B9
:10053000010200E000930402429ABECF0F921F9284
:100540000F931F932F93FF93EF93F894F3E0E5E05D
:1005500016E400E001931A95E1F7009100030530DD
:1005600021F0003021F00A5003C00CE301C000E08C
:100570000093000300910103053021F00A3021F0BF
:100580000A5003C00CE301C00AE00093010300918C
:100590000203053021F0043121F00A5003C00CE3BE
:1005A00001C004E10093020300910303053021F030
:1005B0000E3121F00A5003C00CE301C00EE100939C
:1005C000030310910003F3E0E5E00024E10FF01DC8
:1005D00020EF208310910103F3E0E5E00024E10F18
:1005E000F01D20EF208310910203F3E0E5E00024EA
:1005F000E10FF01D20EF208310910303F3E0E5E00D
:100600000024E10FF01D20EF20835DD1F3E0E5E051
:1006100016E47894EF91FF912F911F910F911F9005
:100620000F9008950F921F920F931F932F93FF9394
:10063000EF93F894F3E0E5E016E400E001931A95F7
:10064000E1F7009103030C3329F0013429F01AE09B
:10065000010F03C005E001C001E400930303009112
:1006600002030C3329F0073329F01AE0010F03C00D
:1006700005E001C007E300930203009101030C337E
:1006800029F00D3229F01AE0010F03C005E001C086
:100690000DE200930103009100030C3329F00332B3
:1006A00029F01AE0010F03C005E062CF03E20093D6
:1006B000000310910303F3E0E5E00024E10FF01DD7
:1006C00020EF208310910203F3E0E5E00024E10F26
:1006D000F01D20EF208310910103F3E0E5E00024FA
:1006E000E10FF01D20EF208310910003F3E0E5E01F
:1006F0000024E10FF01D20EF2083E5D0F3E0E5E0DA
:1007000016E47894EF91FF912F911F910F911F9014
:100710000F90089504D038D06CD0A0D008953F93A6
:100720002F930F931F93FF93EF9330916600303018
:1007300001F500910302069500930302F3E0EAE855
:1007400015E020E021931A95E1F710917603F3E08C
:10075000E0E8E10FF11D0083003049F41A951930EB
:1007600009F41EE01093760300E800930302ABD077
:1007700004C03A953093660000C0EF91FF911F913D
:100780000F912F913F9108953F932F930F931F93B4
:10079000FF93EF9330916700303001F500915104E1
:1007A000069500935104F3E0E8EA15E020E0219378
:1007B0001A95E1F710917703F3E0E0E8E10FF11DFE
:1007C0000083003049F41A95173209F41CE21093A3
:1007D000770300E80093510476D004C03A95309333
:1007E000670000C0EF91FF911F910F912F913F91F2
:1007F00008953F932F930F931F93FF93EF9330919F
:100800006800303001F500915204069500935204BF
:10081000F3E0EDEA15E020E021931A95E1F710915D
:100820007803F3E0E0E8E10FF11D0083003049F4C4
:100830001A951C3209F411E31093780300E8009331
:10084000520441D004C03A953093680000C0EF9143
:10085000FF911F910F912F913F9108953F932F93F7
:100860000F931F93FF93EF9330916900303001F5A0
:1008700000915304069500935304F3E0E0EC15E077
:1008800020E021931A95E1F710917903F3E0E0E875
:10089000E10FF11D0083003049F41A95103409F47A
:1008A00015E41093790300E8009353040CD004C0BE
:1008B0003A953093690000C0EF91FF911F910F911D
:1008C0002F913F9108950F93EF93FF93F894F1E0E8
:1008D000E0E316E4F3E0E5E0B3E0A0E8D1E0C0E354
:1008E00016E401912D91302F3223303021F041E078
:1008F000409354044298022B09931A9591F77894E7
:10090000FF91EF910F910895FF91EF910F9108954D
:100910000F931F932F933F934F935F93EF9300EFAA
:100920000AB900E00BB91AB1107F1AB91BB11F60E8
:100930001BB91AB11F601AB91BB1107F1BB919B1CD
:100940001F701F30F9F12EE03DE04BE057E0121729
:1009500031F0131731F0141731F0151731F090E022
:1009600006C091E004C092E002C093E000C01AB15A
:100970001F701AB91BB1106F1BB9EFEFEA95F1F7B1
:1009800019B1107F20EE30ED40EB50E7121739F02F
:10099000131739F0141739F0151739F00895A0E03E
:1009A00006C0A1E004C0A2E002C0A3E000C001E0D4
:1009B00000930402EF915F914F913F912F911F910E
:1009C0000F91089500E000930402EF915F914F9121
:1009D0003F912F911F910F919927AA2708952E2EAD
:1009E0003F2E0F921F920F931F932F933F934F937E
:1009F0005F936F937F938F939F93AF93BF93CF93A7
:100A0000DF93EF93FF9347E0C1E000241124342FDC
:100A10006AE0369FE22DF32DE00DF11D7AE0829120
:100A200098E0A0E8BA2FB82311F02B9A01C02B98B8
:100A30002D982D9AA6959A95A9F77A9581F7042F66
:100A4000E1E00030EFEF19F0EE1F0A95FCCF88943B
:100A500098E0EE1F10F42B9801C02B9A2D982D9A38
:100A60009A95B9F72C982C9A0FEF0A95F1F72C98D4
:100A70004A9559F6FF91EF91DF91CF91BF91AF91D8
:100A80009F918F917F916F915F914F913F912F91A6
:100A90001F910F911F900F90089501E000930002A5
:100AA0001895429801E0009301021895F3E0E5E003
:0C0AB00016E400E001931A95E1F7D6CBA4
:00000001FF
